{
  "contractName": "Sender",
  "abi": [
    {
      "inputs": [
        {
          "internalType": "string",
          "name": "_codeHash",
          "type": "string"
        },
        {
          "internalType": "string",
          "name": "_authorName",
          "type": "string"
        }
      ],
      "name": "recieveProjectData",
      "outputs": [],
      "stateMutability": "nonpayable",
      "type": "function"
    }
  ],
  "bytecode": "0x608060405234801561001057600080fd5b50610258806100206000396000f3fe608060405234801561001057600080fd5b506004361061002b5760003560e01c80639a8181cb14610030575b600080fd5b61004a600480360381019061004591906101aa565b61004c565b005b5050565b6000604051905090565b600080fd5b600080fd5b600080fd5b600080fd5b6000601f19601f8301169050919050565b7f4e487b7100000000000000000000000000000000000000000000000000000000600052604160045260246000fd5b6100b78261006e565b810181811067ffffffffffffffff821117156100d6576100d561007f565b5b80604052505050565b60006100e9610050565b90506100f582826100ae565b919050565b600067ffffffffffffffff8211156101155761011461007f565b5b61011e8261006e565b9050602081019050919050565b82818337600083830152505050565b600061014d610148846100fa565b6100df565b90508281526020810184848401111561016957610168610069565b5b61017484828561012b565b509392505050565b600082601f83011261019157610190610064565b5b81356101a184826020860161013a565b91505092915050565b600080604083850312156101c1576101c061005a565b5b600083013567ffffffffffffffff8111156101df576101de61005f565b5b6101eb8582860161017c565b925050602083013567ffffffffffffffff81111561020c5761020b61005f565b5b6102188582860161017c565b915050925092905056fea264697066735822122005fe4427786276fa681fa648baec8555f84a76190c1d07c168f4589409e70d9c64736f6c634300080f0033",
  "immutableReferences": {},
  "source": "// https://eips.ethereum.org/EIPS/eip-20\r\n// SPDX-License-Identifier: MIT\r\npragma solidity >=0.5.0 <0.9.0;\r\n\r\nimport \"./ERC20token.sol\";\r\n\r\ncontract Sender {\r\n    function recieveProjectData(string memory _codeHash, string memory _authorName) external {\r\n\r\n    }\r\n}\r\n\r\n\r\ncontract Voting {\r\n    /* mapping field below is equivalent to an associative array or hash.\r\n    The key of the mapping is candidate name stored as type bytes32 and value is\r\n    an unsigned integer to store the vote count\r\n    */\r\n    uint voters;\r\n    uint256 initialBudget;\r\n    ERC20token  token;\r\n    address owner;\r\n\r\n    modifier onlyOwner(){\r\n        require(owner == msg.sender,\"You are not owner\");\r\n        _;\r\n    }\r\n\r\n    struct TopMistakes {\r\n        uint mistakes;\r\n        address addr;\r\n    }\r\n    TopMistakes[10] public topMistakes;\r\n\r\n\r\n    function retrieveVoters() public view returns (uint256){\r\n        return voters;\r\n    }\r\n\r\n    mapping (address => int) public votesReceived;\r\n\r\n    /* Solidity doesn't let you pass in an array of strings in the constructor (yet).\r\n    We will use an array of bytes32 instead to store the list of candidates\r\n    */\r\n\r\n    address[] public candidateList;\r\n\r\n    /* This is the constructor which will be called once when you\r\n    deploy the contract to the blockchain. When we deploy the contract,\r\n    we will pass an array of candidate Wallets who will be contesting in the election\r\n    */\r\n    constructor(address[] memory candidateWallets, uint256 votersAmount,  ERC20token _token)  {\r\n        voters =votersAmount;\r\n        candidateList = candidateWallets;\r\n        initialBudget = candidateWallets.length*1000;\r\n        token = _token;\r\n        owner = msg.sender;\r\n    }\r\n\r\n    // This function returns the total votes a candidate has received so far\r\n    function totalVotesFor(address candidate) view public returns (int) {\r\n        require(validCandidate(candidate));\r\n        return votesReceived[candidate];\r\n    }\r\n\r\n    // This function increments the vote count for the specified candidate. This\r\n    // is equivalent to casting a vote\r\n    function voteForCandidate(address candidate) public {\r\n        require(validCandidate(candidate));\r\n        voters -=1;\r\n        initialBudget-=1000;\r\n        // spend money - transacting to not existing (unclear) addresses\r\n        \r\n        elaborateTopX(candidate, 1);\r\n        \r\n        if(voters == 0){\r\n            // pay to the winner\r\n            token.transfer(topMistakes[0].addr, initialBudget);\r\n        }\r\n        votesReceived[candidate] -= 1;\r\n    }\r\n\r\n    function validCandidate(address candidate) view public returns (bool) {\r\n        for(uint i = 0; i < candidateList.length; i++) {\r\n            if (candidateList[i] == candidate) {\r\n                return true;\r\n            }\r\n        }\r\n        return false;\r\n    }\r\n\r\n    function elaborateTopX(address addr, uint currentValue) private {\r\n        uint i = 0;\r\n        /** get the index of the current max element **/\r\n        for(i; i < topMistakes.length; i++) {\r\n            if(topMistakes[i].mistakes < currentValue) {\r\n                break;\r\n            }\r\n        }\r\n        /** shift the array of position (getting rid of the last element) **/\r\n        for(uint j = topMistakes.length - 1; j > i; j--) {\r\n            topMistakes[j].mistakes = topMistakes[j - 1].mistakes;\r\n            topMistakes[j].addr = topMistakes[j - 1].addr;\r\n        }\r\n        /** update the new max element **/\r\n        topMistakes[i].mistakes = currentValue;\r\n        topMistakes[i].addr = addr;\r\n    }    \r\n    event ProjectSubmitted(string _codeHash, string _authorName, address _sendHashTo);\r\n\r\n    function projectSubmitted(string memory _codeHash, string memory _authorName, address _sendHashTo) external onlyOwner {\r\n        Sender s = Sender(_sendHashTo);\r\n        s.recieveProjectData(_codeHash, _authorName);\r\n        emit ProjectSubmitted(_codeHash,_authorName, _sendHashTo);\r\n    }\r\n\r\n}\r\n\r\n",
  "sourcePath": "C:\\Users\\GiorgiGvimradze\\Documents\\repos\\Truffle\\truffle-boilerplate\\contracts\\Voting.sol",
  "compiler": {
    "name": "solc",
    "version": "0.8.15+commit.e14f2714.Emscripten.clang"
  },
  "schemaVersion": "3.4.7",
  "updatedAt": "2022-06-19T20:54:30.171Z",
  "devdoc": {
    "kind": "dev",
    "methods": {},
    "version": 1
  },
  "userdoc": {
    "kind": "user",
    "methods": {},
    "version": 1
  }
}