{
  "contractName": "TokenReceiver",
  "abi": [
    {
      "inputs": [
        {
          "internalType": "contract IERC20",
          "name": "token",
          "type": "address"
        }
      ],
      "stateMutability": "nonpayable",
      "type": "constructor"
    },
    {
      "anonymous": false,
      "inputs": [
        {
          "indexed": false,
          "internalType": "address",
          "name": "from",
          "type": "address"
        }
      ],
      "name": "DoneStuff",
      "type": "event"
    },
    {
      "inputs": [],
      "name": "doStuff",
      "outputs": [],
      "stateMutability": "nonpayable",
      "type": "function"
    }
  ],
  "bytecode": "0x608060405234801561001057600080fd5b506040516103c73803806103c7833981810160405281019061003291906100ed565b806000806101000a81548173ffffffffffffffffffffffffffffffffffffffff021916908373ffffffffffffffffffffffffffffffffffffffff1602179055505061011a565b600080fd5b600073ffffffffffffffffffffffffffffffffffffffff82169050919050565b60006100a88261007d565b9050919050565b60006100ba8261009d565b9050919050565b6100ca816100af565b81146100d557600080fd5b50565b6000815190506100e7816100c1565b92915050565b60006020828403121561010357610102610078565b5b6000610111848285016100d8565b91505092915050565b61029e806101296000396000f3fe608060405234801561001057600080fd5b506004361061002b5760003560e01c8063874f33a114610030575b600080fd5b61003861003a565b005b600033905060008054906101000a900473ffffffffffffffffffffffffffffffffffffffff1673ffffffffffffffffffffffffffffffffffffffff166323b872dd82306103e86040518463ffffffff1660e01b815260040161009e939291906101ac565b6020604051808303816000875af11580156100bd573d6000803e3d6000fd5b505050506040513d601f19601f820116820180604052508101906100e19190610220565b507ffb55d69a924eb175f134fb8cbb875beb7c22325179dac4eee4af2bd5de6a2ec381604051610111919061024d565b60405180910390a150565b600073ffffffffffffffffffffffffffffffffffffffff82169050919050565b60006101478261011c565b9050919050565b6101578161013c565b82525050565b6000819050919050565b6000819050919050565b6000819050919050565b600061019661019161018c8461015d565b610171565b610167565b9050919050565b6101a68161017b565b82525050565b60006060820190506101c1600083018661014e565b6101ce602083018561014e565b6101db604083018461019d565b949350505050565b600080fd5b60008115159050919050565b6101fd816101e8565b811461020857600080fd5b50565b60008151905061021a816101f4565b92915050565b600060208284031215610236576102356101e3565b5b60006102448482850161020b565b91505092915050565b6000602082019050610262600083018461014e565b9291505056fea2646970667358221220fa435dcb529cd496de5305efb5ba3bc15636854f6262e6fe4cd0f6ba080b3b5664736f6c634300080f0033",
  "immutableReferences": {},
  "source": "/**\r\n * @title TokenReceiver\r\n * @dev Very simple example of a contract receiving ERC20 tokens.\r\n */\r\n\r\n import \"@openzeppelin/contracts/token/ERC20/IERC20.sol\";\r\n\r\ncontract TokenReceiver {\r\n\r\n    IERC20 private _token;\r\n\r\n    event DoneStuff(address from);\r\n\r\n    /**\r\n     * @dev Constructor sets token that can be received\r\n     */\r\n    constructor (IERC20 token) public {\r\n        _token = token;\r\n    }\r\n\r\n    /**\r\n     * @dev Do stuff, requires tokens\r\n     */\r\n    function doStuff() external {\r\n        address from = msg.sender;\r\n\r\n        _token.transferFrom(from, address(this), 1000);\r\n\r\n        emit DoneStuff(from);\r\n    }\r\n}",
  "sourcePath": "C:\\Users\\GiorgiGvimradze\\Documents\\repos\\Truffle\\truffle-boilerplate\\contracts\\TokenReceiver.sol",
  "compiler": {
    "name": "solc",
    "version": "0.8.15+commit.e14f2714.Emscripten.clang"
  },
  "schemaVersion": "3.4.7",
  "updatedAt": "2022-06-19T20:54:30.168Z",
  "devdoc": {
    "kind": "dev",
    "methods": {
      "constructor": {
        "details": "Constructor sets token that can be received"
      },
      "doStuff()": {
        "details": "Do stuff, requires tokens"
      }
    },
    "version": 1
  },
  "userdoc": {
    "kind": "user",
    "methods": {},
    "version": 1
  }
}