{
  "contractName": "Voting",
  "abi": [
    {
      "inputs": [
        {
          "internalType": "address[]",
          "name": "candidateWallets",
          "type": "address[]"
        },
        {
          "internalType": "uint256",
          "name": "votersAmount",
          "type": "uint256"
        },
        {
          "internalType": "contract ERC20token",
          "name": "_token",
          "type": "address"
        }
      ],
      "stateMutability": "nonpayable",
      "type": "constructor"
    },
    {
      "anonymous": false,
      "inputs": [
        {
          "indexed": false,
          "internalType": "string",
          "name": "_codeHash",
          "type": "string"
        },
        {
          "indexed": false,
          "internalType": "string",
          "name": "_authorName",
          "type": "string"
        },
        {
          "indexed": false,
          "internalType": "address",
          "name": "_sendHashTo",
          "type": "address"
        }
      ],
      "name": "ProjectSubmitted",
      "type": "event"
    },
    {
      "inputs": [
        {
          "internalType": "uint256",
          "name": "",
          "type": "uint256"
        }
      ],
      "name": "candidateList",
      "outputs": [
        {
          "internalType": "address",
          "name": "",
          "type": "address"
        }
      ],
      "stateMutability": "view",
      "type": "function",
      "constant": true
    },
    {
      "inputs": [
        {
          "internalType": "uint256",
          "name": "",
          "type": "uint256"
        }
      ],
      "name": "topMistakes",
      "outputs": [
        {
          "internalType": "uint256",
          "name": "mistakes",
          "type": "uint256"
        },
        {
          "internalType": "address",
          "name": "addr",
          "type": "address"
        }
      ],
      "stateMutability": "view",
      "type": "function",
      "constant": true
    },
    {
      "inputs": [
        {
          "internalType": "address",
          "name": "",
          "type": "address"
        }
      ],
      "name": "votesReceived",
      "outputs": [
        {
          "internalType": "int256",
          "name": "",
          "type": "int256"
        }
      ],
      "stateMutability": "view",
      "type": "function",
      "constant": true
    },
    {
      "inputs": [],
      "name": "retrieveVoters",
      "outputs": [
        {
          "internalType": "uint256",
          "name": "",
          "type": "uint256"
        }
      ],
      "stateMutability": "view",
      "type": "function",
      "constant": true
    },
    {
      "inputs": [
        {
          "internalType": "address",
          "name": "candidate",
          "type": "address"
        }
      ],
      "name": "totalVotesFor",
      "outputs": [
        {
          "internalType": "int256",
          "name": "",
          "type": "int256"
        }
      ],
      "stateMutability": "view",
      "type": "function",
      "constant": true
    },
    {
      "inputs": [
        {
          "internalType": "address",
          "name": "candidate",
          "type": "address"
        }
      ],
      "name": "voteForCandidate",
      "outputs": [],
      "stateMutability": "nonpayable",
      "type": "function"
    },
    {
      "inputs": [
        {
          "internalType": "address",
          "name": "candidate",
          "type": "address"
        }
      ],
      "name": "validCandidate",
      "outputs": [
        {
          "internalType": "bool",
          "name": "",
          "type": "bool"
        }
      ],
      "stateMutability": "view",
      "type": "function",
      "constant": true
    },
    {
      "inputs": [
        {
          "internalType": "string",
          "name": "_codeHash",
          "type": "string"
        },
        {
          "internalType": "string",
          "name": "_authorName",
          "type": "string"
        },
        {
          "internalType": "address",
          "name": "_sendHashTo",
          "type": "address"
        }
      ],
      "name": "projectSubmitted",
      "outputs": [],
      "stateMutability": "nonpayable",
      "type": "function"
    }
  ],
  "bytecode": "0x60806040523480156200001157600080fd5b50604051620014de380380620014de833981810160405281019062000037919062000415565b81600081905550826019908051906020019062000056929190620000f9565b506103e88351620000689190620004bf565b60018190555080600260006101000a81548173ffffffffffffffffffffffffffffffffffffffff021916908373ffffffffffffffffffffffffffffffffffffffff16021790555033600360006101000a81548173ffffffffffffffffffffffffffffffffffffffff021916908373ffffffffffffffffffffffffffffffffffffffff16021790555050505062000520565b82805482825590600052602060002090810192821562000175579160200282015b82811115620001745782518260006101000a81548173ffffffffffffffffffffffffffffffffffffffff021916908373ffffffffffffffffffffffffffffffffffffffff160217905550916020019190600101906200011a565b5b50905062000184919062000188565b5090565b5b80821115620001a357600081600090555060010162000189565b5090565b6000604051905090565b600080fd5b600080fd5b600080fd5b6000601f19601f8301169050919050565b7f4e487b7100000000000000000000000000000000000000000000000000000000600052604160045260246000fd5b6200020b82620001c0565b810181811067ffffffffffffffff821117156200022d576200022c620001d1565b5b80604052505050565b600062000242620001a7565b905062000250828262000200565b919050565b600067ffffffffffffffff821115620002735762000272620001d1565b5b602082029050602081019050919050565b600080fd5b600073ffffffffffffffffffffffffffffffffffffffff82169050919050565b6000620002b68262000289565b9050919050565b620002c881620002a9565b8114620002d457600080fd5b50565b600081519050620002e881620002bd565b92915050565b600062000305620002ff8462000255565b62000236565b905080838252602082019050602084028301858111156200032b576200032a62000284565b5b835b81811015620003585780620003438882620002d7565b8452602084019350506020810190506200032d565b5050509392505050565b600082601f8301126200037a5762000379620001bb565b5b81516200038c848260208601620002ee565b91505092915050565b6000819050919050565b620003aa8162000395565b8114620003b657600080fd5b50565b600081519050620003ca816200039f565b92915050565b6000620003dd82620002a9565b9050919050565b620003ef81620003d0565b8114620003fb57600080fd5b50565b6000815190506200040f81620003e4565b92915050565b600080600060608486031215620004315762000430620001b1565b5b600084015167ffffffffffffffff811115620004525762000451620001b6565b5b620004608682870162000362565b93505060206200047386828701620003b9565b92505060406200048686828701620003fe565b9150509250925092565b7f4e487b7100000000000000000000000000000000000000000000000000000000600052601160045260246000fd5b6000620004cc8262000395565b9150620004d98362000395565b9250817fffffffffffffffffffffffffffffffffffffffffffffffffffffffffffffffff048311821515161562000515576200051462000490565b5b828202905092915050565b610fae80620005306000396000f3fe608060405234801561001057600080fd5b50600436106100885760003560e01c80634041ef541161005b5780634041ef541461012657806371851be814610156578063b13c744b14610186578063d24e3b6d146101b657610088565b8063017587121461008d578063163046eb146100a957806330c880c3146100c557806338cae473146100f5575b600080fd5b6100a760048036038101906100a291906109ed565b6101d4565b005b6100c360048036038101906100be9190610a78565b610317565b005b6100df60048036038101906100da9190610a78565b6104ab565b6040516100ec9190610abe565b60405180910390f35b61010f600480360381019061010a9190610b0f565b6104c3565b60405161011d929190610b5a565b60405180910390f35b610140600480360381019061013b9190610a78565b61050d565b60405161014d9190610abe565b60405180910390f35b610170600480360381019061016b9190610a78565b610568565b60405161017d9190610b9e565b60405180910390f35b6101a0600480360381019061019b9190610b0f565b610616565b6040516101ad9190610bb9565b60405180910390f35b6101be610655565b6040516101cb9190610bd4565b60405180910390f35b3373ffffffffffffffffffffffffffffffffffffffff16600360009054906101000a900473ffffffffffffffffffffffffffffffffffffffff1673ffffffffffffffffffffffffffffffffffffffff1614610264576040517f08c379a000000000000000000000000000000000000000000000000000000000815260040161025b90610c4c565b60405180910390fd5b60008190508073ffffffffffffffffffffffffffffffffffffffff16639a8181cb85856040518363ffffffff1660e01b81526004016102a4929190610ce3565b600060405180830381600087803b1580156102be57600080fd5b505af11580156102d2573d6000803e3d6000fd5b505050507f299412f3abbedcb8d2266d66890d6ba0bfdad4371a0383e6ca7f3c4355e9f35e84848460405161030993929190610d1a565b60405180910390a150505050565b61032081610568565b61032957600080fd5b600160008082825461033b9190610d8e565b925050819055506103e8600160008282546103569190610d8e565b9250508190555061036881600161065e565b600080540361045157600260009054906101000a900473ffffffffffffffffffffffffffffffffffffffff1673ffffffffffffffffffffffffffffffffffffffff1663a9059cbb60046000600a81106103c4576103c3610dc2565b5b6002020160010160009054906101000a900473ffffffffffffffffffffffffffffffffffffffff166001546040518363ffffffff1660e01b815260040161040c929190610df1565b6020604051808303816000875af115801561042b573d6000803e3d6000fd5b505050506040513d601f19601f8201168201806040525081019061044f9190610e46565b505b6001601860008373ffffffffffffffffffffffffffffffffffffffff1673ffffffffffffffffffffffffffffffffffffffff16815260200190815260200160002060008282546104a19190610e73565b9250508190555050565b60186020528060005260406000206000915090505481565b600481600a81106104d357600080fd5b600202016000915090508060000154908060010160009054906101000a900473ffffffffffffffffffffffffffffffffffffffff16905082565b600061051882610568565b61052157600080fd5b601860008373ffffffffffffffffffffffffffffffffffffffff1673ffffffffffffffffffffffffffffffffffffffff168152602001908152602001600020549050919050565b600080600090505b60198054905081101561060b578273ffffffffffffffffffffffffffffffffffffffff16601982815481106105a8576105a7610dc2565b5b9060005260206000200160009054906101000a900473ffffffffffffffffffffffffffffffffffffffff1673ffffffffffffffffffffffffffffffffffffffff16036105f8576001915050610611565b808061060390610f07565b915050610570565b50600090505b919050565b6019818154811061062657600080fd5b906000526020600020016000915054906101000a900473ffffffffffffffffffffffffffffffffffffffff1681565b60008054905090565b60005b600a81101561069f5781600482600a811061067f5761067e610dc2565b5b60020201600001541061069f57808061069790610f07565b915050610661565b60006001600a6106af9190610d8e565b90505b818111156107b55760046001826106c99190610d8e565b600a81106106da576106d9610dc2565b5b6002020160000154600482600a81106106f6576106f5610dc2565b5b600202016000018190555060046001826107109190610d8e565b600a811061072157610720610dc2565b5b6002020160010160009054906101000a900473ffffffffffffffffffffffffffffffffffffffff16600482600a811061075d5761075c610dc2565b5b6002020160010160006101000a81548173ffffffffffffffffffffffffffffffffffffffff021916908373ffffffffffffffffffffffffffffffffffffffff16021790555080806107ad90610f4f565b9150506106b2565b5081600482600a81106107cb576107ca610dc2565b5b600202016000018190555082600482600a81106107eb576107ea610dc2565b5b6002020160010160006101000a81548173ffffffffffffffffffffffffffffffffffffffff021916908373ffffffffffffffffffffffffffffffffffffffff160217905550505050565b6000604051905090565b600080fd5b600080fd5b600080fd5b600080fd5b6000601f19601f8301169050919050565b7f4e487b7100000000000000000000000000000000000000000000000000000000600052604160045260246000fd5b61089c82610853565b810181811067ffffffffffffffff821117156108bb576108ba610864565b5b80604052505050565b60006108ce610835565b90506108da8282610893565b919050565b600067ffffffffffffffff8211156108fa576108f9610864565b5b61090382610853565b9050602081019050919050565b82818337600083830152505050565b600061093261092d846108df565b6108c4565b90508281526020810184848401111561094e5761094d61084e565b5b610959848285610910565b509392505050565b600082601f83011261097657610975610849565b5b813561098684826020860161091f565b91505092915050565b600073ffffffffffffffffffffffffffffffffffffffff82169050919050565b60006109ba8261098f565b9050919050565b6109ca816109af565b81146109d557600080fd5b50565b6000813590506109e7816109c1565b92915050565b600080600060608486031215610a0657610a0561083f565b5b600084013567ffffffffffffffff811115610a2457610a23610844565b5b610a3086828701610961565b935050602084013567ffffffffffffffff811115610a5157610a50610844565b5b610a5d86828701610961565b9250506040610a6e868287016109d8565b9150509250925092565b600060208284031215610a8e57610a8d61083f565b5b6000610a9c848285016109d8565b91505092915050565b6000819050919050565b610ab881610aa5565b82525050565b6000602082019050610ad36000830184610aaf565b92915050565b6000819050919050565b610aec81610ad9565b8114610af757600080fd5b50565b600081359050610b0981610ae3565b92915050565b600060208284031215610b2557610b2461083f565b5b6000610b3384828501610afa565b91505092915050565b610b4581610ad9565b82525050565b610b54816109af565b82525050565b6000604082019050610b6f6000830185610b3c565b610b7c6020830184610b4b565b9392505050565b60008115159050919050565b610b9881610b83565b82525050565b6000602082019050610bb36000830184610b8f565b92915050565b6000602082019050610bce6000830184610b4b565b92915050565b6000602082019050610be96000830184610b3c565b92915050565b600082825260208201905092915050565b7f596f7520617265206e6f74206f776e6572000000000000000000000000000000600082015250565b6000610c36601183610bef565b9150610c4182610c00565b602082019050919050565b60006020820190508181036000830152610c6581610c29565b9050919050565b600081519050919050565b60005b83811015610c95578082015181840152602081019050610c7a565b83811115610ca4576000848401525b50505050565b6000610cb582610c6c565b610cbf8185610bef565b9350610ccf818560208601610c77565b610cd881610853565b840191505092915050565b60006040820190508181036000830152610cfd8185610caa565b90508181036020830152610d118184610caa565b90509392505050565b60006060820190508181036000830152610d348186610caa565b90508181036020830152610d488185610caa565b9050610d576040830184610b4b565b949350505050565b7f4e487b7100000000000000000000000000000000000000000000000000000000600052601160045260246000fd5b6000610d9982610ad9565b9150610da483610ad9565b925082821015610db757610db6610d5f565b5b828203905092915050565b7f4e487b7100000000000000000000000000000000000000000000000000000000600052603260045260246000fd5b6000604082019050610e066000830185610b4b565b610e136020830184610b3c565b9392505050565b610e2381610b83565b8114610e2e57600080fd5b50565b600081519050610e4081610e1a565b92915050565b600060208284031215610e5c57610e5b61083f565b5b6000610e6a84828501610e31565b91505092915050565b6000610e7e82610aa5565b9150610e8983610aa5565b9250827f800000000000000000000000000000000000000000000000000000000000000001821260008412151615610ec457610ec3610d5f565b5b827f7fffffffffffffffffffffffffffffffffffffffffffffffffffffffffffffff018213600084121615610efc57610efb610d5f565b5b828203905092915050565b6000610f1282610ad9565b91507fffffffffffffffffffffffffffffffffffffffffffffffffffffffffffffffff8203610f4457610f43610d5f565b5b600182019050919050565b6000610f5a82610ad9565b915060008203610f6d57610f6c610d5f565b5b60018203905091905056fea2646970667358221220881555f414e01a72388b5cefc73e9458c4b953502c8ed5e314fd24880968073364736f6c634300080f0033",
  "immutableReferences": {},
  "source": "// https://eips.ethereum.org/EIPS/eip-20\r\n// SPDX-License-Identifier: MIT\r\npragma solidity >=0.5.0 <0.9.0;\r\n\r\nimport \"./ERC20token.sol\";\r\n\r\ncontract Sender {\r\n    function recieveProjectData(string memory _codeHash, string memory _authorName) external {\r\n\r\n    }\r\n}\r\n\r\n\r\ncontract Voting {\r\n    /* mapping field below is equivalent to an associative array or hash.\r\n    The key of the mapping is candidate name stored as type bytes32 and value is\r\n    an unsigned integer to store the vote count\r\n    */\r\n    uint voters;\r\n    uint256 initialBudget;\r\n    ERC20token  token;\r\n    address owner;\r\n\r\n    modifier onlyOwner(){\r\n        require(owner == msg.sender,\"You are not owner\");\r\n        _;\r\n    }\r\n\r\n    struct TopMistakes {\r\n        uint mistakes;\r\n        address addr;\r\n    }\r\n    TopMistakes[10] public topMistakes;\r\n\r\n\r\n    function retrieveVoters() public view returns (uint256){\r\n        return voters;\r\n    }\r\n\r\n    mapping (address => int) public votesReceived;\r\n\r\n    /* Solidity doesn't let you pass in an array of strings in the constructor (yet).\r\n    We will use an array of bytes32 instead to store the list of candidates\r\n    */\r\n\r\n    address[] public candidateList;\r\n\r\n    /* This is the constructor which will be called once when you\r\n    deploy the contract to the blockchain. When we deploy the contract,\r\n    we will pass an array of candidate Wallets who will be contesting in the election\r\n    */\r\n    constructor(address[] memory candidateWallets, uint256 votersAmount,  ERC20token _token)  {\r\n        voters =votersAmount;\r\n        candidateList = candidateWallets;\r\n        initialBudget = candidateWallets.length*1000;\r\n        token = _token;\r\n        owner = msg.sender;\r\n    }\r\n\r\n    // This function returns the total votes a candidate has received so far\r\n    function totalVotesFor(address candidate) view public returns (int) {\r\n        require(validCandidate(candidate));\r\n        return votesReceived[candidate];\r\n    }\r\n\r\n    // This function increments the vote count for the specified candidate. This\r\n    // is equivalent to casting a vote\r\n    function voteForCandidate(address candidate) public {\r\n        require(validCandidate(candidate));\r\n        voters -=1;\r\n        initialBudget-=1000;\r\n        // spend money - transacting to not existing (unclear) addresses\r\n        \r\n        elaborateTopX(candidate, 1);\r\n        \r\n        if(voters == 0){\r\n            // pay to the winner\r\n            token.transfer(topMistakes[0].addr, initialBudget);\r\n        }\r\n        votesReceived[candidate] -= 1;\r\n    }\r\n\r\n    function validCandidate(address candidate) view public returns (bool) {\r\n        for(uint i = 0; i < candidateList.length; i++) {\r\n            if (candidateList[i] == candidate) {\r\n                return true;\r\n            }\r\n        }\r\n        return false;\r\n    }\r\n\r\n    function elaborateTopX(address addr, uint currentValue) private {\r\n        uint i = 0;\r\n        /** get the index of the current max element **/\r\n        for(i; i < topMistakes.length; i++) {\r\n            if(topMistakes[i].mistakes < currentValue) {\r\n                break;\r\n            }\r\n        }\r\n        /** shift the array of position (getting rid of the last element) **/\r\n        for(uint j = topMistakes.length - 1; j > i; j--) {\r\n            topMistakes[j].mistakes = topMistakes[j - 1].mistakes;\r\n            topMistakes[j].addr = topMistakes[j - 1].addr;\r\n        }\r\n        /** update the new max element **/\r\n        topMistakes[i].mistakes = currentValue;\r\n        topMistakes[i].addr = addr;\r\n    }    \r\n    event ProjectSubmitted(string _codeHash, string _authorName, address _sendHashTo);\r\n\r\n    function projectSubmitted(string memory _codeHash, string memory _authorName, address _sendHashTo) external onlyOwner {\r\n        Sender s = Sender(_sendHashTo);\r\n        s.recieveProjectData(_codeHash, _authorName);\r\n        emit ProjectSubmitted(_codeHash,_authorName, _sendHashTo);\r\n    }\r\n\r\n}\r\n\r\n",
  "sourcePath": "C:\\Users\\GiorgiGvimradze\\Documents\\repos\\Truffle\\truffle-boilerplate\\contracts\\Voting.sol",
  "compiler": {
    "name": "solc",
    "version": "0.8.15+commit.e14f2714.Emscripten.clang"
  },
  "schemaVersion": "3.4.7",
  "updatedAt": "2022-06-19T20:57:51.882Z",
  "networkType": "ethereum",
  "devdoc": {
    "kind": "dev",
    "methods": {},
    "version": 1
  },
  "userdoc": {
    "kind": "user",
    "methods": {},
    "version": 1
  }
}